:020000040800F2
:100000000004022001020008690F00086D0F0008BB
:10001000C10F00086D0F0008950F000803020008CB
:100020000302000803020008030200086D2700080D
:10003000030200080302000803020008030200088C
:10004000030200080302000803020008030200087C
:1000500003020008030200087D390008A9390008DE
:10006000D5390008013A00082D3A000803020008BB
:10007000030200080302000803020008030200084C
:10008000030200080302000803020008030200083C
:10009000030200080302000803020008593A00089E
:1000A000030200080302000803020008030200081C
:1000B000A137000803020008030200080302000839
:1000C00003020008030200080302000803020008FC
:1000D00003020008030200080302000803020008EC
:1000E000C13A0008030200080302000803020008E6
:1000F00003020008030200080302000803020008CC
:1001000003020008030200080302000803020008BB
:1001100003020008030200080302000803020008AB
:10012000030200080302000803020008030200089B
:10013000030200080302000803020008030200088B
:10014000030200080302000803020008D92E000879
:10015000030200080302000803020008030200086B
:10016000030200080302000803020008030200085B
:10017000030200080302000803020008030200084B
:1001800003020008030200085110000803020008DF
:10019000030200080302000803020008030200082B
:1001A000030200080302000803020008030200081B
:1001B000030200080302000803020008030200080B
:1001C00003020008030200080302000803020008FB
:1001D00003020008030200080302000803020008EB
:1001E00003020008030200080302000803020008DB
:1001F00003020008030200080302000803020008CB
:1002000002E000F000F8FEE772B6394880F3088893
:10021000384880F3098838484EF60851CEF200017C
:10022000086040F20000CCF200004EF63471CEF2CD
:1002300000010860BFF34F8FBFF36F8F40F20000E3
:10024000C0F2F0004EF68851CEF200010860BFF314
:100250004F8FBFF36F8F4FF00000E1EE100A4EF6A4
:100260003C71CEF200010860062080F31488BFF3D1
:100270006F8F02F0B9FA03F01BFA4FF055301F49A7
:100280001B4A91423CBF41F8040BFAE71C49194A4A
:1002900091423CBF41F8040BFAE71A491A4A1B4B3A
:1002A0009A423EBF51F8040B42F8040BF8E70020D5
:1002B0001749184A91423CBF41F8040BFAE702F093
:1002C000D7FA03F05FFA144C144DAC4203DA54F839
:1002D000041B8847F9E700F03FF8114C114DAC4280
:1002E00003DA54F8041B8847F9E702F0BFBA0000AC
:1002F0000004022000240220000000080000022068
:1003000000040220303F0008002402205024022074
:1003100050240220D8340220000200080002000805
:1003200000020008000200082DE9F04F2DED108AB0
:10033000C1F80CD0D0F80CD0BDEC108ABDE8F08F1D
:10034000002383F311882846A047002001F096FE81
:1003500001F046FE00DFFEE770B56FF070031F4C42
:1003600000256FF07F0623701E236570A570E57071
:1003700025716571A571E57125726672A372E572CA
:1003800000F02AFD20B10E2325726672A372E57279
:1003900002F0AEF9044602F0E3F90546D0B9104B7D
:1003A0009C4219D001339C4241F2883412BF054669
:1003B00000240125002002F0A5F90DB100F0B6F8E7
:1003C00000F07AFD00F05CFC204600F04FF900F0F0
:1003D000ADF8F9E70024EDE70446EBE750240220EE
:1003E000010007B008B500F0C9FBA0F12003584296
:1003F000584108BD054B07B51B88022101A8ADF87F
:10040000043000F027FC03B05DF804FBA83B0008B3
:10041000064991F8243033B100230822086A81F894
:10042000243000F051BC0120704700BF702402202E
:100430002DE9F84F234C05468846174694F824309A
:100440008BBB2E46DFF87C90002F38D094F824A088
:10045000BAF1000F05D12022FF214846266200F0A4
:1004600019FDCAF10805414604EB8A00BD4228BFC8
:100470003D465FFA85FBAD00A7EB0B072A462E44ED
:1004800000F0E0FC94F82430A844FFB29B445FFAEB
:100490008BFBBBF1080F84F824B0D5D1FFF7B8FF70
:1004A0000028D1D108E0266A06EB8306B042C9D005
:1004B000FFF7AEFF0028C4D10020BDE8F88F01206F
:1004C000BDE8F88F7024022010B5202383F3118833
:1004D0001248C3680BB101F057FE0023104A4FF4D5
:1004E0007A710E4801F014FE002383F311880D4C3D
:1004F000236813B12368013B2360636813B1636809
:10050000013B6360084B1B7833B9636823B9022051
:1005100000F08EFC3223636010BD00BF5C2402201B
:10052000C9040008A025022098240220454B464912
:100530002DE9F04153F8042F013201D1BDE8F081DB
:100540008B42F7D1414C424B22689A4278D9414BB9
:100550009B6803F1006303F5C0339A4270D2002018
:1005600000F0AAFB02203C4B187000F057FC3B4BFC
:100570001A6C00221A64196E1A66196E596C5A6444
:10058000596E5A66596E596941F08001596159692D
:1005900021F0800159615969196941F000511961CF
:1005A000196921F0005119611B6972B62C4B2D4954
:1005B0000B601D682468BFF34F8FBFF36F8F2A4B0A
:1005C000C3F88420BFF34F8F5A6922F480325A61F6
:1005D000BFF34F8FD3F8802043F6E07EC2F3C90605
:1005E000C2F34E32B707520102EA0E0838463146CE
:1005F000013948EA000C00F14040B1F1FF3FC3F877
:1006000074C2F5D1203A12F1200FEDD1BFF34F8F14
:10061000BFF36F8FBFF34F8FBFF36F8F5A6922F411
:1006200000325A610022C3F85022BFF34F8FBFF34C
:100630006F8F202383F31188AD4685F30888204708
:10064000BDE8F081FC7F01081C80010804800108DE
:10065000FF7F010850240220982402200038024025
:100660000080010808ED00E000ED00E02DE9F04F0A
:1006700099B0B34C2022FF21019010A8A66800F089
:1006800009FCB04AA3461378A3B90121AE48117002
:10069000C360202383F31188C3680BB101F074FD9C
:1006A0000023AA4A4FF47A71A74801F031FD0023D4
:1006B00083F31188019B13B1A54B019A1A600023A3
:1006C000A44AA349019F99461C461D4698461370AB
:1006D0004B600292012000F0A1FB002F00F012827B
:1006E0009B4B1B68002B40F00D8219B0BDE8F08FCA
:1006F0000220FFF777FE002840F0FB81019BB9F153
:10070000000F08BF1F46944B1B8802210BA8ADF8B1
:100710002C3000F09FFADDE74FF47A7000F02EFAEB
:10072000031E0393EADB0220FFF75CFE82460028EB
:10073000E4D0039B581E042800F2DD81DFE800F0BE
:10074000030E1114170018A80523042140F8343DA6
:1007500000F080FA54464FF0000856E00421784833
:10076000F6E704217D48F3E704217D48F0E71C24E7
:100770002046043400F0A2FA04210B900BA800F0EC
:1007800069FA2C2CF4D1E5E7002DB7D0002CB5D0B8
:100790000220FFF727FE0546002800F0AF81012068
:1007A0006C4C00F089FA4FF000090220207000F034
:1007B00035FB5FFA89FA504600F08EFA074658B1C9
:1007C000504609F1010900F097FA0028F1D12C46B2
:1007D000A9460027634B97E701233E46022023707A
:1007E00000F012FBDBF808309E4206D2304600F0E3
:1007F00065FA0130EBD10436F4E70026029BA946E6
:100800002C461E703746524B5E6000F04BFB15B114
:10081000002C18BF0027FFF7EDFD5BE7002D3FF42C
:100820006DAF002C3FF46AAF0220029B187000F0FD
:10083000F5FA322000F0A2F9B0F1000AC0F25E81B0
:100840001AF0030540F05A8106EB0A03DBF8082092
:10085000934200F25381BAF5807F00F24F815545F3
:100860000DDA4FF47A7000F089F90490049B002BA4
:10087000C0F24481049B3C4AAB540135EFE7C820E9
:10088000FFF7B0FD0546002800F038811F2E11D873
:10089000C6F1200410AB26F0030033495445184438
:1008A00028BF5446224600F0CDFA2246FF212E48AA
:1008B00000F0F0FA4FEAAA0A2B4930465FFA8AF2B2
:1008C000FFF7B6FD0446002800F01A8106EB8A0601
:1008D00005469AE70220FFF785FD00283FF40EAF9A
:1008E000FFF796FD00283FF409AF4FF0000A53468A
:1008F000DBF8082092451CD2BAF11F0F12D8109ACB
:1009000001320FD02AF0030218A90A4452F8202C11
:100910000B92184604220BA90AF1040A00F064FBAA
:100920000346E5E75046039300F0C8F9039B0B909C
:10093000EFE718A8042140F84C3D00F08BF964E77C
:10094000502402209C2502205C240220C9040008B7
:10095000A025022098240220AA3B0008542402204B
:1009600058240220AC3B00089C24022018A8002335
:10097000642140F8343D00F039F900287FF4BEAE20
:100980000220FFF72FFD00283FF4B8AE0B9800F0CF
:10099000C5F918AB43F8480D04211846CDE718A84F
:1009A0000023642140F8343D00F020F900287FF452
:1009B000A5AE0220FFF716FD00283FF49FAE0B986E
:1009C00000F0BAF918AB43F8440DE5E70220FFF751
:1009D00009FD00283FF492AE00F0B4F918AB43F8DB
:1009E000400DD9E70220FFF7FDFC00283FF486AE5A
:1009F0000BA9142000F0ACF9824618A8042140F895
:100A00003CAD00F027F951460BA896E7322000F0E4
:100A1000B5F8B0F1000AFFF671AE1AF0030F7FF4DB
:100A20006DAE0AEB0803DBF8082093423FF666AE92
:100A30000220FFF7D7FC00283FF460AE2AF0030A3B
:100A4000C244D0453FF4E1AE404608F1040800F04E
:100A500035F904210A900AA800F0FCF8F1E74FF4F8
:100A60007A70FFF7BFFC00283FF448AEFFF7D0FCD8
:100A700000283FF4AFAE109B01330CD0082210A920
:100A80000020FFF7D5FC00283FF4A4AE2022FF2170
:100A900010A800F0FFF9FFF7ADFC374801F0F4FAB9
:100AA00023E6002D3FF42AAE002C3FF427AE18A811
:100AB0000023642140F8343D00F098F88246002875
:100AC0007FF41CAE0220FFF78DFC00283FF416AE29
:100AD0000390FFF78FFC41F28830574601F0D4FABB
:100AE0000B9800F021FA00F0DDF9039B1C461D462F
:100AF000F0E5054689E64FF00008FFE52546FDE5EF
:100B00002C4667E6002000F039F80490049B002B87
:100B1000FFF6E3AD012000F077F9049B213B122B97
:100B20003FF6D8AD01A252F823F000BFF10600084D
:100B30001907000889070008D5060008D50600082F
:100B4000D50600081D0800080D0A0008D508000891
:100B50006D0900089F090008CD090008D5060008A6
:100B6000E5090008D50600085F0A00080B08000820
:100B7000D5060008A30A0008A08601002DE9F34766
:100B80004FF47A75002402AE154F4543DFF85880C4
:100B900006F8014D97F900305FFA84F95A1C01D02C
:100BA000A34212D158F82400012231460368D3F839
:100BB00020A02B46D047012807D10A4B9DF80700FB
:100BC00083F8009002B0BDE8F0870134022CE1D137
:100BD0004FF4FA7001F058FA4FF0FF30F2E700BF1F
:100BE00000240220C4250220B83B00082DE9F0476C
:100BF0004FF47A7506460024134F4D43DFF85080BA
:100C000097F900305FFA84F95A1C01D0A34210D141
:100C100058F82400042231460368D3F820A02B465C
:100C2000D047042805D1094B002083F80090BDE887
:100C3000F0870134022CE3D14FF4FA7001F024FA6A
:100C40004FF0FF30BDE8F08700240220C4250220C9
:100C5000B83B0008074B30B41A78074B53F82240D2
:100C60000A46014623682046DD69044BAC4630BC89
:100C7000604700BFC4250220B83B0008A0860100E1
:100C8000F8B50A4C00250A4E01F038FC094F2070D7
:100C900030682378834207D901F02AFC3368054481
:100CA0000133BD423360F3D9F8BD00BFC525022032
:100CB000A8250220FF7F010001F0CCBC00F10060FC
:100CC00000F5C0300068704700F10060920000F548
:100CD000C03001F059BC0000054B1A68054B1B7869
:100CE0009B1A834202D9104401F002BC00207047D5
:100CF000A8250220C525022038B5074D04462868DE
:100D0000204401F0FDFB28B928682044BDE83840A4
:100D100001F00EBC38BD00BFA825022010F003036F
:100D200008D1B0F5806F05D800F10050A0F5712012
:100D30000068704700207047014BC058704700BFE3
:100D400020F4F01F014B1868704700BF002004E03A
:100D50001F4BF0B51E681F4BC6F30B02360C1F88E5
:100D60005D68BA4293F9084022D09F89BA4221D0E7
:100D70001F8BBA4206D102220C2404FB02335D68A9
:100D800093F90840B6F5805F16D041F201039E4208
:100D900008BF5A24421E013D0B460A44934215D215
:100DA00015F9016F581C4EB1034600F8016CF5E7C8
:100DB0000022E1E70122DFE74124EBE72C25824214
:100DC0001D7001D9981C5C70401AF0BD1846FBE7F5
:100DD000002004E004240220094B5B88B3F5805F07
:100DE00009D041F20102934207D10122054B03EBE6
:100DF0008203D87870470022F8E70020704700BFD0
:100E0000002004E0B03B0008022803D14FF08062CC
:100E1000014B9A61704700BF000C0240022803D1C9
:100E20004FF48062014B9A61704700BF000C024092
:100E3000022804D1024A536983F4806353617047E6
:100E4000000C0240002310B5934203D0CC5CC45484
:100E50000133F9E710BD000030B5441E14F9010F4D
:100E60000B4658B193F900500131854206D11AB9A9
:100E700093F90020801A30BD013AEFE7002AF7D13C
:100E8000104630BD02460346981A13F9011B00298B
:100E9000FAD1704702440346934202D003F8011B83
:100EA000FAE77047024B1A78024B1A70704700BF7E
:100EB000C42502200024022038B5154C154D2046CB
:100EC00000F022FC2946204600F04AFC2D6812481A
:100ED000EA6ED2F8043843F00203C2F8043801F095
:100EE000D3F80E49284600F049FDEA6E0C48D2F8C6
:100EF00004380C49A04223F00203C2F804384FF42E
:100F0000E1330B6003D0BDE8384000F05BBB38BD77
:100F1000F42A0220A83C000840420F00D03C000800
:100F200048260220AC25022038B50B4B05461A781E
:100F30000A4B53F822400A4B9C420CD0094B00212B
:100F400018221846FFF7A6FF056001462046BDE8B7
:100F5000384000F037BB38BDC4250220B83B00083C
:100F6000F42A0220AC250220FEE7000000B59BB069
:100F7000EFF3098168226846FFF764FFEFF305830A
:100F8000034B9A6B9A6A9A6A9A6A9A6A9B6AFEE714
:100F900000ED00E000B59BB0EFF3098168226846E0
:100FA000FFF750FFEFF30583044B9A6B9A6A9A6A36
:100FB0009A6A9A6A9A6A9B6AFEE700BF00ED00E0AF
:100FC00000B59BB0EFF3098168226846FFF73AFF4E
:100FD000EFF30583034B5A6B9A6A9A6A9A6A9A6A84
:100FE0009B6AFEE700ED00E030B50A44074D9142F0
:100FF0000BD011F8013B09245840013CF7D040F3D5
:1010000000032B4083EA5000F7E730BD2083B8EDA2
:10101000002304491A465A50C81808334260802BEE
:10102000F9D17047C8250220024A136843F0C00373
:101030001360704700780040044B5A6810439A6868
:1010400058600AB1181D1047704700BF482602209B
:101050002DE9F84F404EF56D2F68EC6921072C62A1
:1010600019D014F0080F0CBF00208020E20748BF01
:1010700040F02000A3074FF0200348BF40F040009D
:10108000610748BF40F4807083F31188FFF7D4FFF5
:10109000002383F31188E20509D5202383F3118807
:1010A0004FF40070FFF7C8FF002383F311884FF05F
:1010B0002009DFF8A4A04FF0000B14F0200832D173
:1010C0003B0615D54FF02009DFF890A020060FD57C
:1010D00089F31188504600F0E9F9002830DA082039
:1010E000FFF7AAFF27F080032B60002383F311880A
:1010F00079060DD562060BD5202383F31188F26C97
:10110000336D9A4201D1336CFBB9002383F311880C
:10111000E30604D5B26E13690BB150699847BDE878
:10112000F84F01F033BB89F311886B6A504696F88B
:101130006410194000F054FA8BF31188EC69BCE795
:10114000A86288F31188EC69C0E727F040071020F7
:10115000FFF772FF2F60D8E7482602208026022082
:1011600013B5104C204600F021FA04F1140000944D
:1011700000234FF400720C4900F0E2F804F138004B
:1011800000944FF40072094B094900F05BF9094BD8
:101190000B215220E365084B236602B0BDE81040E6
:1011A00000F058B848260220B42602202910000872
:1011B000B42802200078004080F93703224B002930
:1011C00008BF1946037C012B816630B50CD11F4B3B
:1011D000984209D11E4B1A6C42F080421A641A6E72
:1011E00042F080421A661B6E0A68036EC46D03EB00
:1011F0005203B3FBF2F34A68150442BF23F007051C
:1012000003F0070343EA4503E3608B6843F04003C0
:101210006360CB68510543F00103A36042F4967309
:1012200043F0010323604FF0FF33236205D512F032
:10123000102205D0B2F1805F04D080F8643030BD58
:101240007F23FAE73F23F8E7EC3B0008482602201B
:101250000038024000F1604300F01F02090140091C
:1012600003F56143C9B2800083F80013012300F144
:101270006040934000F56140C0F8803103607047E2
:10128000F8B51546826804460B46AA4200D2856826
:10129000A1692669761AB54207D218462A46FFF791
:1012A000D1FDA3692B44A3610DE011D9AF1B3246D8
:1012B0001846FFF7C7FD3A46E1683044FFF7C2FD24
:1012C000E2683A44A261A36828465B1BA360F8BDAC
:1012D00018462A46FFF7B6FDE368E4E783689342C1
:1012E0002DE9F04104460F46154600D28568606935
:1012F0002669361AB54207D22A463946FFF7A2FDBB
:1013000063692B4463610EE013D9A5EB06083246EE
:101310003946FFF797FD4246B919E068FFF792FD9D
:10132000E26842446261A36828465B1BA360BDE893
:10133000F0812A463946FFF785FDE368E2E70000C1
:1013400010B50A440024C361029B006040608460C1
:10135000C160816141610261036210BD08B58269AB
:101360004369934201D1826882B982680132826006
:101370005A1C42611970426903699A4201D3C368D9
:101380004361002100F09CFE002008BD4FF0FF30BB
:1013900008BD000070B5202304460E4683F3118873
:1013A000A568A5B1A368A269013BA360531CA36112
:1013B00015782269934224BFE368A361E3690BB106
:1013C00020469847002383F31188284670BD314694
:1013D000204600F065FE0028E2DA85F3118870BD32
:1013E0002DE9F74F05460F4690469A46D0F81C90D7
:1013F000202686F311884FF0000B144664B1224674
:1014000039462846FFF73CFF034668B9514628464F
:1014100000F046FE0028F1D0002383F31188A8EBEA
:10142000040003B0BDE8F08FB9F1000F03D00190C4
:101430002846C847019B8BF31188E41A1F4486F3A2
:101440001188DBE7C160816141611144C361009B88
:10145000006040608260016103627047F8B5044635
:101460000E461746202383F31188A568A5B1A3680B
:10147000013BA36063695A1C62611E702369626943
:101480009A4224BFE3686361E3690BB12046984741
:10149000002080F31188F8BD3946204600F000FE98
:1014A0000028E2DA85F31188F8BD000083694269FB
:1014B0009A4210B501D182687AB98268013282609D
:1014C0005A1C82611C7803699A4201D3C368836104
:1014D000002100F0F5FD204610BD4FF0FF3010BD9B
:1014E0002DE9F74F05460F4690469A46D0F81C90D6
:1014F000202686F311884FF0000B144664B1224673
:1015000039462846FFF7EAFE034668B951462846A1
:1015100000F0C6FD0028F1D0002383F31188A8EB6A
:10152000040003B0BDE8F08FB9F1000F03D00190C3
:101530002846C847019B8BF31188E41A1F4486F3A1
:101540001188DBE7026843681143016003B1184763
:10155000704700001430FFF743BF00004FF0FF3327
:101560001430FFF73DBF00003830FFF7B9BF00006F
:101570004FF0FF333830FFF7B3BF00001430FFF7F0
:1015800009BF00004FF0FF311430FFF703BF000028
:101590003830FFF763BF00004FF0FF323830FFF7FD
:1015A0005DBF000000207047FFF7DABD044B036009
:1015B000002343608360C36001230374704700BF4E
:1015C000043C000810B52023044683F31188FFF77C
:1015D000F5FD02232374002383F3118810BD00005E
:1015E00038B5C36904460D461BB904210844FFF70A
:1015F000A9FF294604F11400FFF7B0FE002806DA1F
:10160000201D4FF48061BDE83840FFF79BBF38BD17
:10161000026843681143016003B118477047000036
:1016200013B5446BD4F894341A681178042915D191
:10163000217C022912D11979012312898B4013428E
:101640000CD101A904F14C0001F0A8FED4F8944497
:101650000246019B2179206800F0E0F902B010BD3C
:10166000143001F02BBE00004FF0FF33143001F0B6
:1016700025BE00004C3001F0FDBE00004FF0FF33EE
:101680004C3001F0F7BE0000143001F0F9BD00004D
:101690004FF0FF31143001F0F3BD00004C3001F089
:1016A000C9BE00004FF0FF324C3001F0C3BE000055
:1016B000D0F8942438B5136805461978042901D068
:1016C000012038BD017C0229FAD1127901205C8900
:1016D00090400440F4D105F1140001F08BFD024666
:1016E0000028EDD0D5F894544FF4807328686979B8
:1016F00000F082F9204638BD406BFFF7D9BF0000EB
:1017000000207047704700007FB5124B012502266C
:10171000044603600023057400F1840243602946F7
:101720008360C3600C4B0290143001934FF48073BC
:10173000009601F03BFD094B04F523722946019305
:1017400004F14C004FF480730294009601F002FE05
:1017500004B070BD2C3C0008F916000821160008E2
:101760000B68202282F311880A7903EB820210624F
:101770004A790D3243F822008A7912B103EB8203D1
:1017800018620223C0F894140374002383F31188B1
:101790007047000038B5037F044613B190F8543009
:1017A000ABB90125201D0221FFF732FF04F114001F
:1017B00025776FF0010100F08FFC84F8545004F19C
:1017C0004C006FF00101BDE8384000F085BC38BD29
:1017D00010B5012104460430FFF71AFF00232377D8
:1017E00084F8543010BD000038B50446002514308C
:1017F00001F0F4FC04F14C00257701F0C3FD201D3D
:1018000084F854500121FFF703FF2046BDE838401B
:10181000FFF74EBF90F85C3003F06003202B19D126
:1018200090F85D20212A0AD0222A4FF000030ED022
:10183000202A0FD1084A02650722426504E0064BC0
:101840000365072343650023836501207047036513
:101850004365F9E70020704728240220D0F894342B
:1018600037B51A680446117804291AD1017C022977
:1018700017D11979012312898B40134211D100F13C
:101880004C05284601F03EFE58B101A9284601F05A
:1018900085FDD4F894440246019B2179206800F02C
:1018A000BDF803B030BD000000EB8103F7B51C6A42
:1018B00005460E46F4B1202383F3118805EB860715
:1018C000201D08214C34FFF7A3FEFB685B691B68F1
:1018D00013B1204601F070FD01A9204601F05EFD24
:1018E000024648B1019B3146284600F097F8002394
:1018F00083F3118803B0F0BDFB685A691268002AAF
:10190000F5D01B8A013B1340F1D105F15C02EAE7F7
:101910000D3138B550F82140DCB1202383F3118814
:10192000D4F894241368527903EB8203DB689B6933
:101930005D6845B104216018FFF76AFE294604F18D
:10194000140001F061FC2046FFF7B2FE002383F390
:10195000118838BD7047000001F010B8012300F174
:10196000240200F1380103700023436042F8043B75
:101970008A421361FAD103814381704738B5044626
:10198000202383F3118800254160C560056145610E
:101990008561C561056201F001F80223237085F3BA
:1019A000118838BD70B500EB8103054650690E46BD
:1019B0001446DA6018B110220021FFF76BFAA06913
:1019C00018B110220021FFF765FA31462846BDE81C
:1019D000704001F0ADB80000028902F001020281FE
:1019E000428902F001024281002202614261826169
:1019F000C261026201F030B9F0B4012500EB81044C
:101A000047898D40E4683D43A469458123600023F4
:101A1000A2606360F0BC01F04BB90000F0B4012596
:101A200000EB810407898D40E4683D4364690581CA
:101A300023600023A2606360F0BC01F0C5B9000020
:101A400070B50223002504460370A0F8645080F8A6
:101A5000665080F8675005814581C5600561456124
:101A60008561C561056280F84C5000F0FDFF636838
:101A70001B6823B129462046BDE87040184770BD59
:101A80000278436880F8682005221B6802700BB159
:101A90000421184770470000436890F868201B68CD
:101AA00002700BB1052118477047000090F84C30C8
:101AB00070B5044613B1002380F84C3004F15C0289
:101AC000204601F0EBF863689B6863BB94F85C50B8
:101AD00015F0600615D194F85D3005F07F0545EAF4
:101AE000032540F202339D4200F00E815BD8022DA7
:101AF00000F0DC803FD8002D00F08780012D00F041
:101B0000CF800021204601F033FB0021204601F068
:101B100025FB63681B6813B10621204698470623FE
:101B200084F84C3070BD204698470028CED094F8F9
:101B3000632094F8623043EA0223626D934238BF17
:101B4000636594F95C30656D002B4FF0200380F2E3
:101B5000FD80002D00F0EC80092284F84C2083F3F6
:101B600011880021636D226D2046FFF757FF002387
:101B700083F3118870BDB5F5817F00F0B180B5F5B4
:101B8000407F49D0B5F5807FBBD194F85E30012B02
:101B9000B7D1B4F8643023F00203A4F864302665AA
:101BA0006665A665C3E740F201639D421ED8B5F5A0
:101BB000C06F3BD2B5F5A06FA3D1B4F85C30B3F5DC
:101BC000A06F0ED194F85E30204684F8663000F0A5
:101BD000A3FF63681B6813B10121204698470323C4
:101BE0002370002323656365A365A0E7B5F5106F37
:101BF00032D040F602439D4252D0B5F5006F80D1FD
:101C000004F167032365012324E004F16403A5655F
:101C10002365022363658AE794F85E30012B7FF425
:101C200070AFB4F8643043F00203B6E794F8612073
:101C30002046616894F860304D6843EA022394F8C6
:101C40005F1094F85E20A84700283FF45AAF43681D
:101C5000236503686365A4E72378042B10D1202350
:101C600083F311882046FFF7B7FE86F31188636877
:101C7000032184F867601B6821700BB120469847E8
:101C800094F85E30002BACD084F8673004232370C6
:101C900063681B68002BA4D0022120469847A0E768
:101CA000374B23650223636500239DE794F860109A
:101CB000204611F0800F01F00F010ED000F0E0FF80
:101CC000012806D002287FF41CAF2E4B60652365E7
:101CD00067E72D4B6565236563E700F0C3FFEFE71A
:101CE00094F85E30002B7FF40CAF94F8603013F062
:101CF0000F013FF476AF1A06204602D501F04CFAE8
:101D00006FE701F03FFA6CE794F85E30002B7FF448
:101D1000F8AE94F8603013F00F013FF462AF1B0689
:101D2000204602D501F024FA5BE701F017FA58E7E4
:101D3000142284F84C2083F311882B462A46294626
:101D40002046FFF759FE85F3118870BD5DB115225D
:101D500084F84C2083F311880021636D226D2046A6
:101D6000FFF74AFE03E70B2284F84C2083F3118827
:101D70002B462A4629462046FFF750FEE3E700BFE0
:101D80005C3C0008543C0008583C000838B590F80A
:101D90004C300446152B29D8DFE803F03E282828CC
:101DA00028283E28280B29392828282828282828A8
:101DB0003E3E90F8631090F86220436D42EA0122A3
:101DC0009A4214D9C268128AB3FBF2F502FB1535A8
:101DD0006DB9202383F311882B462A462946FFF745
:101DE0001DFE85F311880A2384F84C3038BD142376
:101DF00084F84C30202383F31188002320461A46B0
:101E00001946FFF7F9FD002383F3118838BD836D70
:101E100003B198470023E7E7002101F0A9F9002169
:101E2000204601F09BF963681B6813B10621204628
:101E300098470623D8E7000090F84C20152A38B5BB
:101E4000044622D80123934040F6416213421DD13B
:101E500013F480150FD19B0217D50B2380F84C305B
:101E6000202383F311882B462A462946FFF7D6FD07
:101E700085F3118838BDC3689B695B682BB9836D96
:101E800003B19847002384F84C3038BD002101F09D
:101E90006FF90021204601F061F963681B6813B1F6
:101EA0000621204698470623EDE70000024B00225A
:101EB0001B605B609A607047B42A0220002382682E
:101EC0000374054B1B6899689142FBD25A68036002
:101ED0004260106058607047B42A022008B5202381
:101EE00083F31188037C032B05D0042B0DD02BB971
:101EF00083F3118808BD436900221A604FF0FF3355
:101F00004361FFF7DBFF0023F2E790E80C001A6063
:101F100002685360F2E70000002382680374054BF7
:101F20001B6899689142FBD85A6803604260106050
:101F300058607047B42A0220054B19690874186864
:101F4000026853601A60186101230374FEF7ECB94C
:101F5000B42A02204B1C30B5054687B00A4C10D07D
:101F6000236901A8094A00F0D3F82846FFF7E4FFE7
:101F7000049B13B101A800F007F92369586907B061
:101F800030BDFFF7D9FFF8E7B42A0220DD1E0008B4
:101F900038B50C4D044641612B6981689A689142BD
:101FA00003D8BDE83840FFF789BF1846FFF786FF22
:101FB00001232C61014623742046BDE83840FEF71A
:101FC000B3B900BFB42A0220044B1A681B69906899
:101FD0009B68984294BF002001207047B42A0220D9
:101FE00010B5084C236820691A68546022600122E9
:101FF00023611A74FFF790FF01462069BDE8104085
:10200000FEF792B9B42A02208260022202740022F2
:10201000427470478368A3F17C0243F80C2C026978
:1020200043F83C2C426943F8382C074A43F81C2CEF
:10203000C268A3F1180043F8102C022203F8082C00
:10204000002203F8072C70474103000810B5202335
:1020500083F31188FFF7DEFF00210446FFF798FFA6
:10206000002383F31188204610BD0000024B1B693A
:1020700058610F20FFF760BFB42A0220202383F3AA
:102080001188FFF7F3BF000008B50146202383F352
:1020900011880820FFF75EFF002383F3118808BD35
:1020A00049B1064B42681B6918605A60136043606F
:1020B0000420FFF74FBF4FF0FF307047B42A0220D3
:1020C0000368984206D01A68026050601846596149
:1020D000FFF7F4BE7047000038B504460D4620688F
:1020E000844200D138BD036823605C604561FFF71E
:1020F000E5FEF4E7054B03F114025A619A614FF0D3
:10210000FF32DA6100221A62704700BFB42A02204F
:10211000F8B503614FF08043C26002295C6A06464D
:10212000184B38BF02211A461F4652F8145F9542D9
:102130000AD1586198611C62056045608160081988
:10214000BDE8F84001F000BA186AAB68241A0C190F
:1021500002D3E41A2D6804E09C4202D2204401F02C
:1021600001FAAB689C42F4D86B68356073601E60FE
:102170004FF0FF336E60B460A968091BA960FB6172
:10218000F8BD00BFB42A022010B41B4C234653F8FC
:10219000141F814210D0416802680A6002685160D1
:1021A0009A424FF00001C16003D0936881680B44EC
:1021B00093605DF8044B70470A6800209A426261A0
:1021C0005360C86003D15DF8044B01F0C5B9936852
:1021D00088680344206A93604FF08042526A121A62
:1021E0009342E6D9991A5DF8044B012998BF931CD4
:1021F000184401F0B7B900BFB42A0220002070478C
:10220000FEE70000704700004FF0FF30704700000D
:10221000022906D0032906D00129064818BF00204C
:10222000704705487047032A9ABF044800EBC20074
:10223000002070472C3D0008E03C000830240220BC
:1022400070B59AB006460846144601AD294600F01E
:1022500095F82846FEF716FEC0B2431C5B0086E8E0
:10226000180023700323023404F8013C00231946AC
:10227000DAB20234904201D81AB070BDEA5C013380
:1022800004F8011C04F8022CF2E7000008B5202332
:1022900083F311880348FFF7E1FA002383F31188E1
:1022A00008BD00BFF42A022010B50446052916D83F
:1022B000DFE801F016150316161D202383F311889D
:1022C0000E4A0121FFF76EFB20460D4A0221FFF75F
:1022D00069FB0C48FFF788FA002383F3118810BDCF
:1022E000202383F311880748FFF754FAF4E72023EB
:1022F00083F311880348FFF76BFAEDE7603C0008B1
:10230000843C0008F42A022038B50C4D0C4C2A46B7
:102310000C4904F10800FFF793FF05F1CA0204F12C
:1023200010000949FFF78CFF05F5CA7204F1180087
:102330000649BDE83840FFF783BF00BFBC2F02202D
:1023400030240220B03C0008BA3C0008C53C00081C
:1023500070B5044608460D46FEF794FDC6B2204609
:10236000013403780BB9184670BD32462946FEF792
:1023700073FD0028F3D1012070BD00002DE9F04766
:1023800004460D46FEF77EFD2B49C6B22046FFF7F8
:10239000DFFF08B10736F6B228492046FFF7D8FF1D
:1023A00008B11036F6B2632E0BD8DFF88C80DFF858
:1023B0008C90234FDFF894A0267846B92E70BDE8A4
:1023C000F08721462846BDE8F04701F0E5BB252E01
:1023D0002ED1072241462046FEF73EFD70B9194B2B
:1023E0002A4603F10C0153F8040B8B4242F8040B0C
:1023F000F9D11B8807340E351380DDE708224946E2
:102400002046FEF729FD98B9AA1C0F4B13F8011FAF
:10241000023209095345C95D02F8041C197801F01C
:102420000F01C95D02F8031CF0D118350834C3E769
:102430002E7001340135BFE74C3D0008C53C000853
:10244000633D0008543D00081FF4F01F2BF4F01FFB
:10245000BFF34F8F024AD368DB03FCD4704700BF41
:10246000003C024008B5074B1B7853B9FFF7F0FF5B
:10247000054B1A69002A04DA044A5A6002F18832CC
:102480005A6008BD1A320220003C02402301674511
:1024900008B5054B1B7833B9FFF7DAFF034A136918
:1024A00043F00043136108BD1A320220003C024091
:1024B0000B2870B513D80B4A0B4C137863B94FF047
:1024C00000610A4E44F8231056F8235001330C2BB8
:1024D0002944F7D10123137054F8200070BD002067
:1024E00070BD00BF4C3202201C320220743D000837
:1024F000014B53F820007047743D00080C207047D2
:102500000B2810B5044601D9002010BDFFF7D0FFFD
:10251000064B53F824301844C21A0BB9012010BDE1
:1025200012680132F0D1043BF6E700BF743D0008A9
:102530000B2810B5044621D8FFF78AFFFFF792FF5A
:102540000F4AF323D360C300DBB243F4007343F0BC
:1025500002031361136943F480331361FFF778FFBB
:10256000FFF7A6FF074B53F8241000F0DBF8FFF746
:102570008FFF2046BDE81040FFF7C2BF002010BD0E
:10258000003C0240743D00082DE9F84312F00103BD
:1025900015463FD18218B2F1026F3BD22B4B1B681C
:1025A00013F0010336D0FFF75DFF294CF32340F20F
:1025B0000127E360FFF74CFF032D01D9830712D0F9
:1025C0000F46401A224C40F20118EB1BC6190B446F
:1025D000012B236924D823F001032361FFF758FF5F
:1025E0000120BDE8F883236923F440732361236944
:1025F0003B43236151F8046B0660BFF34F8FFFF735
:1026000027FF03689E4208D0236923F0010323615A
:10261000FFF73EFF0020BDE8F883043D0430CBE720
:1026200023F44073B9462361236943EA0803236115
:1026300037F8023B3380BFF34F8FFFF709FF36882F
:10264000B6B2B9F80030B342BFD0DDE7003802407F
:10265000003C0240084908B50B7828B153B9FFF790
:1026600001FF01230B7008BD23B10870BDE80840CD
:10267000FFF70EBF08BD00BF1A3202200244043922
:10268000064BD2B210B5904200D110BD441C00B22E
:1026900053F8200041F8040FE0B2F4E7502800405E
:1026A000104B30B51C6F240407D41C6F44F4007425
:1026B0001C671C6F44F400441C670B4C0244043933
:1026C0002368D2B243F480732360084B904200D158
:1026D00030BD441C51F8045F00B243F82050E0B212
:1026E000F4E700BF0038024000700040502800406E
:1026F00007B5012201A90020FFF7C0FF019803B030
:102700005DF804FB13B50446FFF7F2FFA04206D0C4
:1027100002A90122002041F8044DFFF7C1FF02B0D9
:1027200010BD00000144BFF34F8F064B884204D315
:10273000BFF34F8FBFF36F8F7047C3F85C02203039
:10274000F4E700BF00ED00E0034B1B689B0042BFB5
:102750000122024B1A707047743802404D32022039
:10276000014B1878704700BF4D320220064A53686B
:1027700023F001035360EFF30983683383F309887F
:10278000002383F31188704730EF00E010B5202359
:1027900083F31188104B5B6813F4006318D0F1EEDB
:1027A000103AEFF309844FF0807344F84C3C0B4B24
:1027B000DB6844F8083CA4F1680383F30988FFF759
:1027C00003FC18B1064B44F8503C10BD054BFAE72A
:1027D00083F3118810BD00BF00ED00E030EF00E092
:1027E0005103000854030008F0B5BFF34F8FBFF347
:1027F0006F8F1D4B0021C3F85012BFF34F8FBFF3F3
:102800006F8F5A6942F400325A61BFF34F8FBFF3A2
:102810006F8FC3F88410BFF34F8FD3F8802043F637
:10282000E076C2F3C904C2F34E32A507520102EAB0
:10283000060E284621464EEA0007013900F14040C5
:10284000C3F860724F1CF6D1203A12F1200FEED17E
:10285000BFF34F8F5A6942F480325A61BFF34F8FF2
:10286000BFF36F8FF0BD00BF00ED00E0FEE700009A
:10287000084A094B09498B4204D3094A0021934273
:1028800005D3704752F8040F43F8040BF3E743F8FD
:10289000041BF4E77C3F0008D8340220D83402201F
:1028A000D8340220036F002230B51146C46E9D68F3
:1028B0004FF0FF3004EB421301329542C3F8001988
:1028C000C3F81019C3F80809C3F8001BC3F8101B9C
:1028D000C3F8080BEED24FF00113C4F81C3830BD1A
:1028E000890141F02001016103699B06FCD412209B
:1028F00000F0C4BE204B03EB80022DE9F047D2F874
:102900000CE0461CDD6EDEF8142005EB0636D2F82E
:1029100000C005EB4018516861450BD30123D5F881
:10292000342803FA00F022EA0000C5F834081846FB
:10293000BDE8F087ACEB0103BEF81040A34228BF0E
:102940002346D8F81849A4B2B3EB840F10D8946882
:102950001F46A4F1040959F804AF042FC6F800A0DB
:1029600001D9043FF7E71C440B4494605360D2E75D
:102970000020BDE8F08700BF5032022010B5054CA2
:102980002046FEF7EBFF4FF0A043E366024B2367C0
:1029900010BD00BF50320220C83D00080378012B53
:1029A00070B5054650D12A4BC46E98421BD1294BB5
:1029B0000E2143205A6B42F080025A635A6D42F056
:1029C00080025A655A6D5A6942F080025A615A690A
:1029D00022F080025A615B69FEF73CFC1E4BE3600B
:1029E0001E4BC4F800380023EE6EC4F8003EC0232E
:1029F00023604FF40413A3633369002BFCDA012333
:102A00000C20336100F03AFE3369DB07FCD412205E
:102A100000F034FE3369002BFCDA00262846A6605D
:102A2000FFF740FF6B68C4F81068DB68C4F81468EF
:102A3000C4F81C684BB90A4BA3614FF0FF336361C4
:102A4000A36843F00103A36070BD064BF4E700BF29
:102A5000503202200038024040140040030020029F
:102A6000003C30C0083C30C0F8B5C46E05460021BB
:102A70004FF000662046FFF733FF296F00234FF029
:102A800001128F684FF0FF30C4F83438C4F81C28A6
:102A900004EB431201339F42C2F80069C2F8006B95
:102AA000C2F80809C2F8080BF2D20B68EA6E6B672D
:102AB000636210231361166916F01006FBD1122011
:102AC00000F0DCFDD4F8003823F4FE63C4F80038CD
:102AD000A36943F4402343F01003A3610923C4F81E
:102AE0001038C4F814380A4BEB604FF0C043C4F8F8
:102AF000103B084BC4F8003BC4F81069C4F8003917
:102B00006B6F03F1100243F480136A67A362F8BD90
:102B1000A43D000840800010C26E90F86610D2F804
:102B2000003823F4FE6343EA0113C2F8003870470B
:102B30002DE9F0410EB20D4600EB8608D8F80C10D6
:102B40000F6807F00303022B50D0032B50D03D4AEF
:102B50003D4F012B18BF1746C46E4FEA451E002299
:102B600005F1100C04EB0E03C3F8102B8A69002A40
:102B700040D04A8A05F158033A435B01E2500123F1
:102B8000D4F81C2803FA0CF31343C4F81C38A644E9
:102B900000234A69CEF8103905F13F03002A39D0E5
:102BA0000A8A04EB8303898B9208012988BF4A4370
:102BB000416F561841EA02422946466720465A604C
:102BC000FFF78EFED8F80C301B8A43EA85531F436B
:102BD00005F148035B01E7500123D4F81C2803FAF0
:102BE00005F51543C4F81C58BDE8F081174FB3E74D
:102BF000174FB1E704EB4613D3F8002B22F4004241
:102C0000C3F8002B0123D4F81C2803FA0CF322EAA2
:102C10000303BAE704EB83030E4A04EB4616294686
:102C20005A602046FFF75CFED6F80039012223F4F3
:102C3000004302FA05F5C6F80039D4F81C3823EA37
:102C40000505CFE700800010008004100080081008
:102C500000800C1000040002026F12684267FFF748
:102C600021BE00005831C36E49015B5813F4004087
:102C700004D013F4001F14BF01200220704700008D
:102C80004831C36E49015B5813F4004004D013F47B
:102C9000001F14BF012002207047000000EB8101DB
:102CA000CB68196A0B6813604B685360704700006B
:102CB00000EB810330B5DD68AA691368D36019B9E8
:102CC000402B84BF402313606B8A1468C26E1C447F
:102CD00002EB4110013C09B2B4FBF3F4634303334C
:102CE00023F0030343EAC44343F0C043C0F8103B5E
:102CF0002B6803F00303012B0ED1D2F8083802EB46
:102D0000411013F4807FD0F8003B14BF43F0805390
:102D100043F00053C0F8003B02EB4112D2F8003BF5
:102D200043F00443C2F8003B30BD00002DE9F04100
:102D3000244D0446EE6E06EB4013D3F8087B3807AB
:102D4000C3F8087B0AD5D6F81438190706D505EB61
:102D5000840321462846DB685B689847FA072FD52D
:102D6000D6F81438DB072BD505EB8403D968CCB92A
:102D70008B69488A5E68B6FBF0F200FB12628AB982
:102D80001868DA6890420DD2121A83E814002023E2
:102D900083F311880B482146FFF78AFF84F31188DB
:102DA000BDE8F081012303FA04F26B8923EA0203F0
:102DB0006B81CB6823B121460248BDE8F04118473A
:102DC000BDE8F0815032022000EB81034A0170B56A
:102DD000DD68C36E6C692668E66056BB1A444FF422
:102DE0000020C2F810092A6802F00302012A0AB280
:102DF0000ED1D3F8080803EB421410F4807FD4F806
:102E0000000914BF40F0805040F00050C4F80009A1
:102E100003EB4212D2F8000940F00440C2F8000966
:102E20000122D3F8340802FA01F10143C3F834183F
:102E300070BD19B9402E84BF4020206020681A441C
:102E40002E8A841940F00050013CB4FBF6F440EAAD
:102E5000C440C6E7F8B504461E48C56E05EB4413EA
:102E6000D3F80869F107C3F8086917D5D5F8103801
:102E7000DA0713D500EB8403D9684B691F68DA6859
:102E8000974218D2D21B00271A605F60202383F379
:102E900011882146FFF798FF87F31188330617D56D
:102EA0000123D5F83428A340134211D02046BDE8B1
:102EB000F840FFF71FBD012303FA04F2038923EA58
:102EC000020303818B68002BE8D021469847E5E791
:102ED000F8BD00BF503202209F482DE9F84FC56E63
:102EE00004466E69AB691E4016F4805F6E6105D0C2
:102EF000FEF7A6FDBDE8F84FFFF748BC002E12DA3A
:102F0000D5F8003E9B0705D0D5F8003E23F003031B
:102F1000C5F8003ED5F804388F4823F00103C5F802
:102F20000438FEF7B9FD370502D58B48FEF7A8FD3A
:102F3000B0040CD5D5F8083813F0060FEB6823F46D
:102F400070530CBF43F4105343F4A053EB603107AC
:102F500004D56368DB680BB17F489847F2026FD4F1
:102F6000B3020CD5D4F86C8000274FF00109DFF8CC
:102F7000E8A1236FF9B29B688B4280F09C80F70632
:102F800019D5E16E0A6AC2F30A1702F00F0302F4C0
:102F9000F012B2F5802F00F0B580B2F5402F0AD1C3
:102FA00004EB830301F58051DB68186A00231A469D
:102FB0009F4240F09C803303D5F818481DD5E703A5
:102FC00002D50020FFF7B2FEA50302D50120FFF7CE
:102FD000ADFE600302D50220FFF7A8FE210302D553
:102FE0000320FFF7A3FEE20202D50420FFF79EFEB6
:102FF000A30202D50520FFF799FE77037FF57AAF8C
:10300000E60702D50020FFF725FFA50702D501201E
:10301000FFF720FF600702D50220FFF71BFF210703
:1030200002D50320FFF716FFE20602D50420FFF7C2
:1030300011FFA3067FF55EAF0520FFF70BFF59E7F1
:10304000D4F86C8000274FF00109DFF80CA1236F42
:103050005FFA87FB9B685B4582D308EB4B13D3F881
:10306000002902F44022B2F5802F22D1D3F80029A2
:10307000002A1EDAD3F8002942F09042C3F8002952
:10308000D3F80029002AFBDB5946E06EFFF728FC45
:10309000228909FA0BF322EA0303238104EB8B0351
:1030A000DB689B6813B15946504698475846FFF76E
:1030B00021FC0137CBE708EB4112D2F8003B03F4C7
:1030C0004023B3F5802F10D1D2F8003B002B0CDA4F
:1030D000628909FA01F322EA0303638104EB8103A5
:1030E000DB68DB680BB150469847013741E79C0726
:1030F00000D10A68072B03F101039EBF0270120A78
:10310000013055E7023301F5805104EB8302526828
:1031100090690268D0F808C04068A2EB000E002257
:10312000104697420AD104EB830463689B699A684E
:103130003A449A605A6817445F603CE712F0030F04
:1031400000D10868964502F1010282BF8CF80000A8
:10315000000A0CF1010CE4E750320220C36E03EBCD
:103160004111D1F8003B43F40013C1F8003B704714
:10317000C36E03EB4111D1F8003943F40013C1F8D9
:1031800000397047C36E03EB4111D1F8003B23F4C3
:103190000013C1F8003B7047C36E03EB4111D1F837
:1031A000003923F40013C1F80039704730B50433F7
:1031B000039C0172002104FB0325C361049B006092
:1031C0000363059B4060C1604261026185610462E6
:1031D00042628162C162436330BD00000022416AE5
:1031E000C260416101616FF001018262C262FEF75B
:1031F00073BF000003694269934203D1C2680AB1F8
:1032000000207047181D7047036919600021C268CB
:103210000132C260C269134482699342036124BFD0
:10322000436A0361FEF74CBF38B504460D46E368B8
:103230003BB162690020131D1268A3621344E3626C
:1032400038BD237A33B929462046FEF729FF0028E6
:10325000EDDA38BD6FF00100FBE70000C368C2691A
:10326000013BC3604369134482699342436124BFB5
:10327000436A436100238362036B03B118477047BD
:1032800070B52023044683F31188866A3EB9FFF7A0
:10329000CBFF054618B186F31188284670BDA36A96
:1032A000E26A13F8015B9342A36202D32046FFF760
:1032B000D5FF002383F31188EFE700002DE9F84FD5
:1032C00004460E4690469946202787F3118800252C
:1032D000AA46D4F828B0BBF1000F09D149462046D0
:1032E000FFF7A2FF20B18BF311882846BDE8F88FC5
:1032F000A16AA8EB050BE36A5B1A9B4528BF9B46B6
:10330000BBF1400F1BD9334601F1400251F8040BC9
:10331000914243F8040BF9D1A36A4036403540335B
:10332000A362A26AE36A9A4202D32046FFF796FF9D
:103330008AF311884545D8D287F31188C9E730460A
:103340005A46FDF77FFDA36A5E445D445B44A36279
:10335000E7E7000010B5029C04330172C36103FB70
:103360000421002300608362C362039B4060036307
:10337000049BC460426102618161046242624363F2
:1033800010BD0000026A6FF00101C260426A426132
:10339000026100228262C262FEF79EBE4369026938
:1033A0009A4203D1C2680AB100207047184650F80B
:1033B000043B0B6070470000C3680021C269013301
:1033C000C3604369134482699342436124BF436AE3
:1033D0004361FEF775BE000038B504460D46E3684C
:1033E0003BB1236900201A1DA262E2691344E36223
:1033F00038BD237A33B929462046FEF751FE00280E
:10340000EDDA38BD6FF00100FBE7000003691960D9
:10341000C268013AC260C26913448269934203617F
:1034200024BF436A036100238362036B03B118471F
:103430007047000070B5202304460E4683F31188C0
:10344000856A35B91146FFF7C7FF10B185F31188BA
:1034500070BDA36A1E70A36AE26A01339342A3623D
:1034600004D3E16920460439FFF7D0FF002080F340
:10347000118870BD2DE9F84F04460D4691469A46D5
:103480004FF0200888F311880026B346A76A4FB989
:1034900051462046FFF7A0FF20B187F31188304640
:1034A000BDE8F88FA06AA9EB0603E76A3F1A9F42BE
:1034B00028BF1F46402F1BD905F1400355F8042BA8
:1034C0009D4240F8042BF9D1A36A40364033A362F1
:1034D000A26AE36A9A4204D3E16920460439FFF7FD
:1034E00095FF8BF311884E45D9D288F31188CDE72B
:1034F00029463A46FDF7A6FCA36A3D443E443B44B8
:10350000A362E5E7026943699A4203D1C3681BB924
:10351000184670470023FBE7836A002BF8D0043B72
:103520009B1AF5D01360C368013BC360C3691A449A
:1035300083699A42026124BF436A03610023836264
:103540000123E5E700F040B94FF0804300225863C3
:103550001A610222DA60704700224FF08043DA607D
:10356000704700004FF0804358637047FEE700004B
:1035700010B5194CFEF79AFCFEF7BCFD80221749E6
:103580002046FEF741FD012344F8180C0374144B48
:10359000144AD96821F4E0610904090C0A4312496C
:1035A000DA60CA6842F08072CA60104A1049C2F8F4
:1035B000B01F116841F0010111601022DA7720225A
:1035C00083F82220002383F3118862B60948BDE8FE
:1035D0001040FEF73BBD00BFDC2A0220D43D0008AE
:1035E00000ED00E00003FA05F0ED00E0001000E05F
:1035F00055CEACC5DC3D00082DE9F84F1E4C4FF010
:103600000008656904F11407C1464FF08043266A3B
:10361000AA685B6A9E1B96421CD34FF0200AAA68D8
:10362000236AD5F80CB0B61A134423622B68BB4248
:103630005F606361C5F80C8001D1FFF78DFF89F3EE
:1036400011882869D8478AF311886569AB689E425A
:10365000E5D2DAE76269BA420CD0916823628E1B28
:103660009660A86802282CBF1818981CBDE8F84F6F
:10367000FFF778BFBDE8F88FB42A0220034B5968E2
:103680005A68521A9042FBD8704700BF001000E001
:103690004B6843608B688360CB68C3600B69436190
:1036A0004B6903628B6943620B68036070470000DB
:1036B00008B5274B40F2FF7126481A690A431A6180
:1036C0001A6922F4FF6222F007021A611A691A6B62
:1036D0000A431A631A6D0A431A651F4A1B6D114685
:1036E000FFF7D6FF1D4802F11C01FFF7D1FF1C4870
:1036F00002F13801FFF7CCFF1A4802F15401FFF73D
:10370000C7FF194802F17001FFF7C2FF174802F125
:103710008C01FFF7BDFF164802F1A801FFF7B8FFC3
:10372000144802F1C401FFF7B3FF134802F1E001AE
:10373000FFF7AEFF114802F1FC01FFF7A9FF1048A7
:1037400002F58C71FFF7A4FFBDE8084000F09EB8B9
:103750000038024000000240FC3D00080004024026
:1037600000080240000C0240001002400014024019
:1037700000180240001C02400020024000240240C9
:103780000028024008B500F0F5F9FFF7F1FEFEF75A
:10379000DBFFBDE80840FEF7B7BD00007047000042
:1037A0004FF080431A69920710B508D500241C61B8
:1037B000202383F31188FFF71FFF84F31188BDE8EE
:1037C0001040FEF7E3BF0000104B08211C201A6CCC
:1037D00042F001021A641A6E42F001021A660C4AA3
:1037E0001B6E936843F0010393604FF080436B229C
:1037F0009A624FF0FF32DA6200229A615A63DA600D
:103800005A6001225A611A60FDF724BD0038024057
:10381000002004E01B4B4FF0FF3000211A696FEAD3
:1038200042526FEA52521A611A69C2F30A021A61CD
:103830001A695A6958615A6959615A691A6A62F073
:1038400080521A621A6A02F080521A621A6A5A6A1E
:1038500058625A6A59625A6A0B4A106840F480707A
:103860001060186F00F44070B0F5007F03D04FF483
:10387000803018671967536823F40073536000F0B1
:1038800059B900BF0038024000700040354B4FF47A
:103890004041354A1A64354A11601A6842F0010203
:1038A0001A601A689207FCD59A6822F003029A609F
:1038B0002C4B19469A6812F00C02FBD1186800F0E4
:1038C000F90018609A601A6842F480321A600B6836
:1038D0009B03FCD54B6F43F001034B67214B5A6FA1
:1038E0009007FCD5224A5A601A6842F080721A602A
:1038F0001E4B1A4659684904FCD5196841F48031B9
:1039000019605368D803FCD5136843F4003313607F
:10391000164A53689903FCD5124B1A689201FCD5DC
:10392000144A40F207319A6040F20112C3F88C2029
:103930000022C3F89020104A11609A6842F00202F7
:103940009A60084B9A6802F00C02082AFAD15A6C65
:1039500042F480425A645A6E42F480425A665B6E68
:10396000704700BF003802400004001000700040A3
:10397000086C400900948838003C0240084A08B5A9
:10398000536911680B4003F00103536123B1054AE9
:1039900013680BB150689847BDE80840FEF7F6BEC3
:1039A000003C0140C8250220084A08B55369116847
:1039B0000B4003F00203536123B1054A93680BB136
:1039C000D0689847BDE80840FEF7E0BE003C0140E3
:1039D000C8250220084A08B5536911680B4003F056
:1039E0000403536123B1054A13690BB15069984729
:1039F000BDE80840FEF7CABE003C0140C8250220D1
:103A0000084A08B5536911680B4003F00803536175
:103A100023B1054A93690BB1D0699847BDE80840C6
:103A2000FEF7B4BE003C0140C8250220084A08B594
:103A3000536911680B4003F01003536123B1054A29
:103A4000136A0BB1506A9847BDE80840FEF79EBE66
:103A5000003C0140C8250220174B10B55C691A686C
:103A6000144004F478725A61A30604D5134A936A89
:103A70000BB1D06A9847600604D5104A136B0BB19E
:103A8000506B9847210604D50C4A936B0BB1D06B51
:103A90009847E20504D5094A136C0BB1506C98475E
:103AA000A30504D5054A936C0BB1D06C9847BDE8CB
:103AB0001040FEF76BBE00BF003C0140C82502204D
:103AC0001A4B10B55C691A68144004F47C425A61C0
:103AD000620504D5164A136D0BB1506D9847230546
:103AE00004D5134A936D0BB1D06D9847E00404D50B
:103AF0000F4A136E0BB1506E9847A10404D50C4ABF
:103B0000936E0BB1D06E9847620404D5084A136FC8
:103B10000BB1506F9847230404D5054A936F0BB13E
:103B2000D06F9847BDE81040FEF730BE003C014022
:103B3000C8250220062108B50846FDF78BFB0621A3
:103B40000720FDF787FB06210820FDF783FB0621F0
:103B50000920FDF77FFB06210A20FDF77BFB0621EC
:103B60001720FDF777FB06212820BDE80840FDF768
:103B700071BB000008B5FFF74DFEFDF749FAFDF7F0
:103B800013FDFDF7E9FEFDF7BDFDFFF707FEBDE8FC
:103B90000840FFF7D7BC0000034611F8012B03F8DB
:103BA000012B002AF9D170471210121312110000D4
:103BB0000010410001105A00F42A02204826022079
:103BC00053544D3332463F3F3F3F3F3F0053544DE8
:103BD000333246375B347C355D780053544D333295
:103BE00046375B367C375D780000000000960000A9
:103BF00000000000000000000000000000000000C5
:103C00000000000000000000711500085D150008AC
:103C10009915000885150008911500087D15000804
:103C20006915000855150008A515000800000000DA
:103C30007D16000869160008A516000891160008F0
:103C40009D16000889160008751600086116000800
:103C50000117000800000000010000000000000043
:103C60000200000000000000A91800081119000857
:103C7000400040008C2F02209C2F022002000000F8
:103C800000000000030000000000000055190008BB
:103C90000000000010000000AC2F02200000000017
:103CA000010000000000000050320220010102006B
:103CB0004172647550696C6F740025424F415244E3
:103CC000252D424C002553455249414C250000000A
:103CD000A922000811220008151800088D220008EA
:103CE00043000000E83C000809024300020100C054
:103CF0003209040000010202010005240010010540
:103D000024010001042402020524060001070582A3
:103D1000030800FF09040100020A00000007050172
:103D20000240000007058102400000001200000070
:103D3000343D0008120110010200004009124157F1
:103D400000020102030100000403090425424F415F
:103D5000524425004D6174656B463736352D5769E1
:103D60006E670030313233343536373839414243AB
:103D700044454600008000000080000000800000F4
:103D800000800000000002000000040000000400A9
:103D90000000040000000400000004000000040013
:103DA0000000040000000000AD1A00088D1D00088E
:103DB000391E000840004000C8320220C8320220EC
:103DC00001000000D8320220800000004001000005
:103DD000050000006D61696E00000000F43D000800
:103DE000E0320220D8340220010000006D350008C6
:103DF0000000000069646C65000000000000802A7B
:103E000000000000AAAAAAAA00000000FFFF00000C
:103E10000000000000A00A000000000100000000F7
:103E2000AAAAAAAA00000001FFFF000000000000EB
:103E3000000000000001000000000000AAAAAAAAD9
:103E400000010000FFFF0000000000000000000073
:103E50000040100000000000AAAAAAAA004000002A
:103E6000FFFB000000000000000000000080420096
:103E700000000000AAAAAAAA00404100FFFF00001B
:103E800000000080080000000000000000000000AA
:103E9000AAAAAAAA00000000FFFF0000000000007C
:103EA000000000000000000000000000AAAAAAAA6A
:103EB00000000000FFFF0000000000000000000004
:103EC0000000000000000000AAAAAAAA000000004A
:103ED000FFFF0000000000000000000000000000E4
:103EE00000000000AAAAAAAA00000000FFFF00002C
:103EF00000000000000000000000000000000000C2
:103F000000000000000000000000000000000000B1
:103F100000000000000000000000000000000000A1
:103F20000000000000000000000000000000000091
:103F3000FF00000000000000C03B00083F00000040
:103F400049040000CD3B00083F0000005104000080
:103F5000DB3B00083F000000009600000000080066
:103F600004000000483D00080000000000000000C0
:103F70000000000000000000000000000000000041
:00000001FF
